S01700004763634170706C69636174696F6E342E7372656358
S11300000C9454000C9471000C9471000C947100C5
S11300100C9471000C9471000C9471000C94710098
S11300200C9471000C9471000C9471000C94710088
S11300300C9471000C9471000C94AE020C94710039
S11300400C9471000C9471000C9471000C94710068
S11300500C9471000C9471000C9471000C94710058
S11300600C9471000C947100001F000000001F002C
S1130070001F101010101F00001F181818181F0060
S1130080001F1C1C1C1C1F00001F1E1E1E1E1F0008
S1130090001F1F1F1F1F1F0003070F1F0F07030051
S11300A0181C1E1F1E1C180011241FBECFEFD8E001
S11300B0DEBFCDBF11E0A0E0B1E0E6EBF9E002C0A5
S11300C005900D92A831B107D9F721E0A8E1B1E07C
S11300D001C01D92A132B207E1F70E94D2020C9432
S11300E0D9040C94000010927C00EAE7F0E08081CF
S11300F0816080838081826080838081846080834A
S11301000895EAE7F0E080818068808383E08A953F
S1130110F1F7000080818064808380917A0084FFFD
S1130120FCCFEAE7F0E080818061808380818F7773
S11301308083809178009091790008950E948100D5
S11301409093200180931F0160911F017091200101
S113015080E090E00E948D0320E030E44CE955E417
S11301600E94440420E030E040E85AE30E94440442
S113017020E030E040E251E40E94E502609318017F
S11301807093190180931A0190931B0160911801D7
S11301907091190180911A0190911B0120E030E0C7
S11301A040EC51E40E943F0418161CF481E085B928
S11301B00895609118017091190180911A0190912C
S11301C01B0120E030E048E851E40E94E00288236B
S11301D01CF482E085B9089515B80895982F907F8E
S11301E09BB99BB191609BB99BB194609BB92DE085
S11301F02A95F1F700009BB19B7F9BB99BB19E7F31
S11302009BB99DE09A95F1F7000020E1829FC0011F
S113021011248BB98BB181608BB98BB184608BB99C
S11302208DE08A95F1F700008BB18B7F8BB98BB190
S11302308E7F8BB99DE09A95F1F700000895982F71
S1130240907F9BB99BB194609BB9E9EFF0E0319743
S1130250F1F700C000009BB19B7F9BB9E9EFF0E090
S11302603197F1F700C00000F0E18F9FC001112425
S11302708BB98BB184608BB989EF90E00197F1F76A
S113028000C000008BB18B7F8BB9E9EFF0E03197B0
S1130290F1F700C00000089581E00E941F01089555
S11302A082E00E941F0108950F931F93CF93DF9361
S11302B0009769F0D62F8C01C0E007C0F801EC0F5D
S11302C0F11D80810E94EE00CF5FCD17B8F3DF915E
S11302D0CF911F910F910895EF92FF920F931F9367
S11302E0CF93DF937C01862F90E0880F991F880FAE
S11302F0991F880F991F8064C0E0D0E00DC0F701FA
S1130300EC0FFD1F149101E0080F0E941F01812FC3
S11303100E94EE002196802FC830D10580F3DF9132
S1130320CF911F910F91FF90EF900895CF93DF939A
S113033085EA9EE00197F1F700C000001BB81BB8E6
S11303408AB1806F8AB98AB187608AB990E39BB910
S11303508BB184608BB9E9EFF0E03197F1F700C01D
S113036000008BB18B7F8BB9E9EFF0E03197F1F7A7
S113037000C000009BB98BB184608BB989EF90E019
S11303800197F1F700C000008BB18B7F8BB9E9EFC7
S1130390F0E03197F1F700C0000080E28BB98BB137
S11303A084608BB989EF90E00197F1F700C00000F9
S11303B08BB18B7F8BB9E9EFF0E03197F1F700C097
S11303C0000088E20E941F018CE00E941F0160E08F
S11303D0C0E00AC0D1E0D60F8C2F90E088599F4F1F
S11303E00E946C01C85F6D2FC034A0F3DF91CF91E0
S11303F008950E9496010E944C010E9450010895A4
S11304000F931F93CF93DF93CDB7DEB767970FB6E4
S1130410F894DEBF0FBECDBF8DE0EBE0F1E0DE016E
S1130420119601900D928A95E1F78AE0E1E0F1E0FE
S1130430DE011E9601900D928A95E1F760911801F4
S11304407091190180911A0190911B010E94570328
S11304500AE010E0CB01B8010E94B104EEE0F0E044
S1130460EC0FFD1FE60FF71F80818F836091180149
S11304707091190180911A0190911B010E945703F8
S1130480CB01B8010E94B104EEE0F0E0EC0FFD1FD7
S1130490E80FF91F80818887609118017091190114
S11304A080911A0190911B0120E030E040E251E478
S11304B00E9444040E945703CB01B8010E94B10476
S11304C0EEE0F0E0EC0FFD1FE80FF91F80818A8752
S11304D06CE0CE0101960E9454010E94500167967F
S11304E00FB6F894DEBF0FBECDBFDF91CF911F9141
S11304F00F9108958CE987BD82E084BD95E095BD98
S113050080936E007894089580910001882321F0EF
S11305100E949E001092000180911E01882321F008
S11305200E94000210921E01089580911D018F5FA8
S113053080931D018A3029F481E080930001109298
S11305401D0180911C018F5F80931C01823329F46B
S113055081E080931E0110921C0108951F920F9256
S11305600FB60F9211242F933F934F935F936F9382
S11305707F938F939F93AF93BF93EF93FF930E94C7
S11305809502FF91EF91BF91AF919F918F917F91D0
S11305906F915F914F913F912F910F900FBE0F90EC
S11305A01F90189583E084B981E080937E000E94B7
S11305B073000E94F9010E947A020E948402FDCF16
S11305C00E94CA0308F481E008950E94F9020C9481
S11305D005040E94FE0358F00E94F70340F029F43A
S11305E05F3F29F00C94EE0351110C9439040C94E0
S11305F0F4030E94160468F39923B1F3552391F38D
S1130600951B550BBB27AA2762177307840738F07D
S11306109F5F5F4F220F331F441FAA1FA9F335D0DA
S11306200E2E3AF0E0E832D091505040E695001C8E
S1130630CAF72BD0FE2F29D0660F771F881FBB1F48
S1130640261737074807AB07B0E809F0BB0B802D26
S1130650BF01FF2793585F4F3AF09E3F510578F052
S11306600C94EE030C9439045F3FE4F3983ED4F306
S1130670869577956795B795F7959F5FC9F7880F26
S1130680911D9695879597F90895E1E0660F771F78
S1130690881FBB1F621773078407BA0720F0621B09
S11306A0730B840BBA0BEE1F88F7E09508950E9434
S11306B05E036894B1110C94390408950E941E04D9
S11306C088F09F5798F0B92F9927B751B0F0E1F00F
S11306D0660F771F881F991F1AF0BA95C9F714C0BF
S11306E0B13091F00E943804B1E008950C943804BC
S11306F0672F782F8827B85F39F0B93FCCF38695F8
S113070077956795B395D9F73EF490958095709554
S113071061957F4F8F4F9F4F0895E89409C097FBD1
S11307203EF490958095709561957F4F8F4F9F4FC4
S11307309923A9F0F92F96E9BB279395F695879508
S113074077956795B795F111F8CFFAF4BB0F11F4CB
S113075060FF1BC06F5F7F4F8F4F9F4F16C0882372
S113076011F096E911C0772321F09EE8872F762FA8
S113077005C0662371F096E8862F70E060E02AF0E9
S11307809A95660F771F881FDAF7880F96958795D5
S113079097F90895990F0008550FAA0BE0E8FEEFAA
S11307A016161706E807F907C0F012161306E40731
S11307B0F50798F0621B730B840B950B39F40A262A
S11307C061F0232B242B252B21F408950A2609F408
S11307D0A140A6958FEF811D811D089597F99F670C
S11307E080E870E060E008959FEF80EC08950024B5
S11307F00A941616170618060906089500240A9482
S113080012161306140605060895092E0394000C07
S113081011F4882352F0BB0F40F4BF2B11F460FF96
S113082004C06F5F7F4F8F4F9F4F089557FD9058BF
S1130830440F551F59F05F3F71F04795880F97FBA0
S1130840991F61F09F3F79F087950895121613065A
S11308501406551FF2CF4695F1DF08C01616170689
S11308601806991FF1CF86957105610508940895BE
S1130870E894BB2766277727CB0197F908950E9450
S1130880CA0308F48FEF08950E9457040C940504DA
S11308900E94F70338F00E94FE0320F0952311F024
S11308A00C94EE030C94F40311240C9439040E9468
S11308B0160470F3959FC1F3950F50E0551F629F86
S11308C0F001729FBB27F00DB11D639FAA27F00DA5
S11308D0B11DAA1F649F6627B00DA11D661F829FCC
S11308E02227B00DA11D621F739FB00DA11D621FB1
S11308F0839FA00D611D221F749F3327A00D611DCE
S1130900231F849F600D211D822F762F6A2F1124AF
S11309109F5750409AF0F1F088234AF0EE0FFF1FE2
S1130920BB1F661F771F881F91505040A9F79E3F39
S1130930510580F00C94EE030C9439045F3FE4F30A
S1130940983ED4F3869577956795B795F795E7958F
S11309509F5FC1F7FE2B880F911D9695879597F998
S1130960089597FB072E16F4009407D077FD09D05D
S11309700E94C50407FC05D03EF4909581959F4FD5
S11309800895709561957F4F0895AA1BBB1B51E193
S113099007C0AA1FBB1FA617B70710F0A61BB70BEB
S11309A0881F991F5A95A9F780959095BC01CD0190
S10909B00895F894FFCF46
S11309B6053031323334353637383954656D703A4B
S10B09C62030302E30204300E4
S9030000FC
