S01700004763634170706C69636174696F6E342E7372656358
S11300000C9454000C9471000C9471000C947100C5
S11300100C9471000C9471000C9471000C94710098
S11300200C9471000C9471000C9471000C94710088
S11300300C9471000C9471000C94AA020C9471003D
S11300400C9471000C9471000C9471000C94710068
S11300500C9471000C9471000C9471000C94710058
S11300600C9471000C947100001F000000001F002C
S1130070001F101010101F00001F181818181F0060
S1130080001F1C1C1C1C1F00001F1E1E1E1E1F0008
S1130090001F1F1F1F1F1F0003070F1F0F07030051
S11300A0181C1E1F1E1C180011241FBECFEFD8E001
S11300B0DEBFCDBF11E0A0E0B1E0EAEDF5E002C0A3
S11300C005900D92A831B107D9F721E0A8E1B1E07C
S11300D001C01D92AF31B207E1F70E94CE020C9429
S11300E0EB020C94000010927C00EAE7F0E08081BF
S11300F0816080838081826080838081846080834A
S11301000895EAE7F0E080818068808383E08A953F
S1130110F1F7000080818064808380917A0084FFFD
S1130120FCCFEAE7F0E080818061808380818F7773
S11301308083809178009091790008950E948100D5
S113014090931E0180931D0120911D0130911E0189
S1130150A8E8B3E10E94DC02DC01CB01072E7AE0BF
S1130160B695A795979587957A95D1F7702D909325
S11301701901809318018091180190911901813F10
S1130180910518F081E085B9089580911801909146
S113019019018A3A910518F482E085B9089515B8D1
S11301A00895982F907F9BB99BB191609BB99BB1A7
S11301B094609BB92DE02A95F1F700009BB19B7FD9
S11301C09BB99BB19E7F9BB99DE09A95F1F7000086
S11301D020E1829FC00111248BB98BB181608BB95E
S11301E08BB184608BB98DE08A95F1F700008BB1F7
S11301F08B7F8BB98BB18E7F8BB99DE09A95F1F78C
S113020000000895982F907F9BB99BB194609BB98F
S1130210E9EFF0E03197F1F700C000009BB19B7F5C
S11302209BB9E9EFF0E03197F1F700C00000F0E18D
S11302308F9FC00111248BB98BB184608BB989EF76
S113024090E00197F1F700C000008BB18B7F8BB970
S1130250E9EFF0E03197F1F700C00000089581E084
S11302600E940201089582E00E94020108950F9302
S11302701F93CF93DF93009769F0D62F8C01C0E0D2
S113028007C0F801EC0FF11D80810E94D100CF5FFF
S1130290CD17B8F3DF91CF911F910F910895EF928D
S11302A0FF920F931F93CF93DF937C01862F90E0EF
S11302B0880F991F880F991F880F991F8064C0E0C9
S11302C0D0E00DC0F701EC0FFD1F149101E0080F01
S11302D00E940201812F0E94D1002196802FC830F4
S11302E0D10580F3DF91CF911F910F91FF90EF9093
S11302F00895CF93DF9385EA9EE00197F1F700C05C
S113030000001BB81BB88AB1806F8AB98AB18760B4
S11303108AB990E39BB98BB184608BB9E9EFF0E0C3
S11303203197F1F700C000008BB18B7F8BB9E9EFF7
S1130330F0E03197F1F700C000009BB98BB1846005
S11303408BB989EF90E00197F1F700C000008BB101
S11303508B7F8BB9E9EFF0E03197F1F700C0000033
S113036080E28BB98BB184608BB989EF90E00197FF
S1130370F1F700C000008BB18B7F8BB9E9EFF0E09F
S11303803197F1F700C0000088E20E9402018CE07E
S11303900E94020160E0C0E00AC0D1E0D60F8C2FB9
S11303A090E088599F4F0E944F01C85F6D2FC03461
S11303B0A0F3DF91CF9108950E9479010E942F014B
S11303C00E9433010895CF93DF93CDB7DEB76797CB
S11303D00FB6F894DEBF0FBECDBF8DE0EBE0F1E0C9
S11303E0DE01119601900D928A95E1F78AE0E1E031
S11303F0F1E0DE011E9601900D928A95E1F72091BD
S11304001801309119013695279536952795ABE754
S1130410B4E10E94DC0296958795EEE0F0E0EC0FE3
S1130420FD1FE80FF91F80818F83209118013091FF
S11304301901ADECBCEC0E94DC02AC015695479569
S113044056954795569547959A010E94DC029695D4
S1130450879596958795969587959C01220F331FCE
S1130460880F991F880F991F880F991F820F931F58
S11304709A01281B390BEEE0F0E0EC0FFD1FE20FB0
S1130480F31F8081888740911801509119019A01C6
S11304900E94DC0296958795969587959695879503
S11304A09C01220F331F880F991F880F991F880FF3
S11304B0991F820F931F9A01281B390BEEE0F0E07D
S11304C0EC0FFD1FE20FF31F80818A876CE0CE01E1
S11304D001960E9437010E94330167960FB6F89483
S11304E0DEBF0FBECDBFDF91CF9108958CE987BDEC
S11304F082E084BD95E095BD80936E007894089564
S113050080910001882321F00E949E001092000136
S113051080911C01882321F00E94E30110921C01A8
S1130520089580911B018F5F80931B018A3029F409
S113053081E08093000110921B0180911A018F5F6A
S113054080931A01823329F481E080931C01109274
S11305501A0108951F920F920FB60F9211242F9330
S11305603F934F935F936F937F938F939F93AF9337
S1130570BF93EF93FF930E949102FF91EF91BF917C
S1130580AF919F918F917F916F915F914F913F9127
S11305902F910F900FBE0F901F90189583E084B990
S11305A081E080937E000E9473000E94DC010E941F
S11305B076020E948002FDCFA29FB001B39FC001CA
S11305C0A39F700D811D1124911DB29F700D811D7B
S10D05D01124911D0895F894FFCF43
S11305DA053031323334353637383954656D703A2B
S10B05EA2030302E30204300C4
S9030000FC
